{
  "contractName": "VPool",
  "abi": [
    {
      "constant": true,
      "inputs": [],
      "name": "totalMintedSupply",
      "outputs": [
        {
          "name": "",
          "type": "uint256"
        }
      ],
      "payable": false,
      "stateMutability": "view",
      "type": "function",
      "signature": "0x601e2603"
    },
    {
      "constant": true,
      "inputs": [
        {
          "name": "",
          "type": "address"
        }
      ],
      "name": "balanceOf",
      "outputs": [
        {
          "name": "",
          "type": "uint256"
        }
      ],
      "payable": false,
      "stateMutability": "view",
      "type": "function",
      "signature": "0x70a08231"
    },
    {
      "inputs": [],
      "payable": false,
      "stateMutability": "nonpayable",
      "type": "constructor",
      "signature": "constructor"
    },
    {
      "payable": true,
      "stateMutability": "payable",
      "type": "fallback"
    },
    {
      "constant": false,
      "inputs": [],
      "name": "deposit",
      "outputs": [],
      "payable": true,
      "stateMutability": "payable",
      "type": "function",
      "signature": "0xd0e30db0"
    },
    {
      "constant": false,
      "inputs": [
        {
          "name": "amount",
          "type": "uint256"
        }
      ],
      "name": "withdraw",
      "outputs": [],
      "payable": false,
      "stateMutability": "nonpayable",
      "type": "function",
      "signature": "0x2e1a7d4d"
    }
  ],
  "bytecode": "0x608060405234801561001057600080fd5b50600080819055506103f5806100276000396000f3fe608060405260043610610062576000357c0100000000000000000000000000000000000000000000000000000000900463ffffffff1680632e1a7d4d14610064578063601e26031461009f57806370a08231146100ca578063d0e30db01461012f575b005b34801561007057600080fd5b5061009d6004803603602081101561008757600080fd5b8101908080359060200190929190505050610139565b005b3480156100ab57600080fd5b506100b4610295565b6040518082815260200191505060405180910390f35b3480156100d657600080fd5b50610119600480360360208110156100ed57600080fd5b81019080803573ffffffffffffffffffffffffffffffffffffffff16906020019092919050505061029b565b6040518082815260200191505060405180910390f35b6101376102b3565b005b60008111151561014557fe5b60008054905060008111151561015757fe5b6000600160003373ffffffffffffffffffffffffffffffffffffffff1673ffffffffffffffffffffffffffffffffffffffff1681526020019081526020016000205490506000811115156101a757fe5b600082823073ffffffffffffffffffffffffffffffffffffffff1631028115156101cd57fe5b0490508381101515156101dc57fe5b600084820390506000828285028115156101f257fe5b04905080600160003373ffffffffffffffffffffffffffffffffffffffff1673ffffffffffffffffffffffffffffffffffffffff16815260200190815260200160002081905550808403600054036000819055503373ffffffffffffffffffffffffffffffffffffffff166108fc879081150290604051600060405180830381858888f1935050505015801561028c573d6000803e3d6000fd5b50505050505050565b60005481565b60016020528060005260406000206000915090505481565b6000341115156102bf57fe5b600080549050600081111561035d576000343073ffffffffffffffffffffffffffffffffffffffff163103905060003482848115156102fa57fe5b04029050806000540160008190555080600160003373ffffffffffffffffffffffffffffffffffffffff1673ffffffffffffffffffffffffffffffffffffffff1681526020019081526020016000206000828254019250508190555050506103c6565b60003073ffffffffffffffffffffffffffffffffffffffff163190508060008190555080600160003373ffffffffffffffffffffffffffffffffffffffff1673ffffffffffffffffffffffffffffffffffffffff16815260200190815260200160002081905550505b5056fea165627a7a72305820a3f7a916bc4408558dd11d60b0a54ed4bfd87f10d015551f582106c0bac984460029",
  "source": "pragma solidity >=0.4.21 <0.6.0;\n\ncontract VPool {\n  uint256 public totalMintedSupply;             // The current total minted supply\n  mapping(address => uint256) public balanceOf; // MINT balance of each address\n\n  constructor() public {\n    totalMintedSupply = 0;\n  }\n\n  function deposit() public payable {\n    assert(msg.value > 0);\n\n    uint256 totalLiquidity = totalMintedSupply;\n\n    if(totalLiquidity > 0) {\n      uint256 currentBalance = address(this).balance - msg.value;\n      uint256 mintAmount = (totalLiquidity/currentBalance) * msg.value;\n      \n      totalMintedSupply = totalMintedSupply + mintAmount;\n      balanceOf[msg.sender] += mintAmount;\n    } else {\n      uint256 initialMinted = address(this).balance;\n      totalMintedSupply = initialMinted;\n      balanceOf[msg.sender] = initialMinted;\n    }\n  }\n\n  function withdraw(uint256 amount) public {\n    assert(amount > 0);\n\n    uint256 totalLiquidity = totalMintedSupply;\n    assert(totalLiquidity > 0);\n\n    uint256 senderCurrentBalance = balanceOf[msg.sender];\n\n    assert(senderCurrentBalance > 0);\n\n    uint256 senderVETBalance = (address(this).balance * senderCurrentBalance/totalLiquidity);\n\n    assert(senderVETBalance >= amount);\n\n    uint256 senderNewVETBalance = senderVETBalance - amount;\n\n    uint256 senderNewBalance = (senderCurrentBalance * senderNewVETBalance/senderVETBalance);\n\n    balanceOf[msg.sender] = senderNewBalance;\n    totalMintedSupply = totalMintedSupply - (senderCurrentBalance - senderNewBalance);\n\n    msg.sender.transfer(amount);\n  }\n\n  function() external payable { } // accept transfers\n}\n",
  "sourcePath": "/Users/jordan.holland/Documents/training/solidity/vpool/contracts/VPool.sol",
  "compiler": {
    "name": "solc",
    "version": "0.5.0+commit.1d4f565a.Emscripten.clang"
  },
  "schemaVersion": "3.0.5",
  "updatedAt": "2019-04-08T08:43:51.830Z",
  "devdoc": {
    "methods": {}
  },
  "userdoc": {
    "methods": {}
  }
}