{
  "contractName": "VPool",
  "abi": [
    {
      "constant": true,
      "inputs": [],
      "name": "totalMintedSupply",
      "outputs": [
        {
          "name": "",
          "type": "uint256"
        }
      ],
      "payable": false,
      "stateMutability": "view",
      "type": "function"
    },
    {
      "constant": true,
      "inputs": [],
      "name": "vthor",
      "outputs": [
        {
          "name": "",
          "type": "address"
        }
      ],
      "payable": false,
      "stateMutability": "view",
      "type": "function"
    },
    {
      "constant": true,
      "inputs": [],
      "name": "lockOutTime",
      "outputs": [
        {
          "name": "",
          "type": "uint256"
        }
      ],
      "payable": false,
      "stateMutability": "view",
      "type": "function"
    },
    {
      "constant": true,
      "inputs": [
        {
          "name": "",
          "type": "address"
        }
      ],
      "name": "balanceOf",
      "outputs": [
        {
          "name": "",
          "type": "uint256"
        }
      ],
      "payable": false,
      "stateMutability": "view",
      "type": "function"
    },
    {
      "constant": true,
      "inputs": [],
      "name": "owner",
      "outputs": [
        {
          "name": "",
          "type": "address"
        }
      ],
      "payable": false,
      "stateMutability": "view",
      "type": "function"
    },
    {
      "constant": true,
      "inputs": [],
      "name": "conversion",
      "outputs": [
        {
          "name": "",
          "type": "address"
        }
      ],
      "payable": false,
      "stateMutability": "view",
      "type": "function"
    },
    {
      "constant": true,
      "inputs": [],
      "name": "node",
      "outputs": [
        {
          "name": "",
          "type": "address"
        }
      ],
      "payable": false,
      "stateMutability": "view",
      "type": "function"
    },
    {
      "inputs": [
        {
          "name": "vthorAddress",
          "type": "address"
        },
        {
          "name": "conversionAddress",
          "type": "address"
        },
        {
          "name": "nodeAddress",
          "type": "address"
        },
        {
          "name": "mppAddress",
          "type": "address"
        }
      ],
      "payable": false,
      "stateMutability": "nonpayable",
      "type": "constructor"
    },
    {
      "payable": true,
      "stateMutability": "payable",
      "type": "fallback"
    },
    {
      "anonymous": false,
      "inputs": [
        {
          "indexed": false,
          "name": "transactionType",
          "type": "uint8"
        },
        {
          "indexed": true,
          "name": "sender",
          "type": "address"
        },
        {
          "indexed": false,
          "name": "depositedAmount",
          "type": "uint256"
        },
        {
          "indexed": false,
          "name": "userBalance",
          "type": "uint256"
        },
        {
          "indexed": false,
          "name": "totalMintedSupply",
          "type": "uint256"
        },
        {
          "indexed": false,
          "name": "contractBalance",
          "type": "uint256"
        }
      ],
      "name": "BalanceUpdate",
      "type": "event"
    },
    {
      "constant": false,
      "inputs": [],
      "name": "deposit",
      "outputs": [],
      "payable": true,
      "stateMutability": "payable",
      "type": "function"
    },
    {
      "constant": false,
      "inputs": [
        {
          "name": "amount",
          "type": "uint256"
        }
      ],
      "name": "withdraw",
      "outputs": [],
      "payable": false,
      "stateMutability": "nonpayable",
      "type": "function"
    },
    {
      "constant": false,
      "inputs": [
        {
          "name": "amountVET",
          "type": "uint256"
        }
      ],
      "name": "convertEnergy",
      "outputs": [
        {
          "name": "",
          "type": "uint256"
        }
      ],
      "payable": false,
      "stateMutability": "nonpayable",
      "type": "function"
    },
    {
      "constant": false,
      "inputs": [
        {
          "name": "toLvl",
          "type": "uint8"
        }
      ],
      "name": "upgradeNodeStatus",
      "outputs": [],
      "payable": false,
      "stateMutability": "nonpayable",
      "type": "function"
    }
  ],
  "bytecode": "0x608060405234801561001057600080fd5b5060405160808061192d8339810180604052608081101561003057600080fd5b81019080805190602001909291908051906020019092919080519060200190929190805190602001909291905050506000808190555083600260006101000a81548173ffffffffffffffffffffffffffffffffffffffff021916908373ffffffffffffffffffffffffffffffffffffffff16021790555082600360006101000a81548173ffffffffffffffffffffffffffffffffffffffff021916908373ffffffffffffffffffffffffffffffffffffffff16021790555081600460006101000a81548173ffffffffffffffffffffffffffffffffffffffff021916908373ffffffffffffffffffffffffffffffffffffffff1602179055504260068190555033600560006101000a81548173ffffffffffffffffffffffffffffffffffffffff021916908373ffffffffffffffffffffffffffffffffffffffff16021790555060008190508073ffffffffffffffffffffffffffffffffffffffff16638ca3b44830600560009054906101000a900473ffffffffffffffffffffffffffffffffffffffff166040518363ffffffff167c0100000000000000000000000000000000000000000000000000000000028152600401808373ffffffffffffffffffffffffffffffffffffffff1673ffffffffffffffffffffffffffffffffffffffff1681526020018273ffffffffffffffffffffffffffffffffffffffff1673ffffffffffffffffffffffffffffffffffffffff16815260200192505050600060405180830381600087803b15801561026757600080fd5b505af115801561027b573d6000803e3d6000fd5b505050508073ffffffffffffffffffffffffffffffffffffffff16633659f8ed30681b1ae4d6e2ef500000806040518463ffffffff167c0100000000000000000000000000000000000000000000000000000000028152600401808473ffffffffffffffffffffffffffffffffffffffff1673ffffffffffffffffffffffffffffffffffffffff1681526020018381526020018281526020019350505050600060405180830381600087803b15801561033357600080fd5b505af1158015610347573d6000803e3d6000fd5b5050505050505050506115ce8061035f6000396000f3fe6080604052600436106100af576000357c0100000000000000000000000000000000000000000000000000000000900463ffffffff1680632e1a7d4d146100b15780634d8eeff7146100ec578063601e26031461012a5780636192e18414610155578063676b0d36146101ac5780636c5d73ed146101fb57806370a08231146102265780638da5cb5b1461028b5780639311ca69146102e2578063d0e30db014610339578063d70754ec14610343575b005b3480156100bd57600080fd5b506100ea600480360360208110156100d457600080fd5b810190808035906020019092919050505061039a565b005b3480156100f857600080fd5b506101286004803603602081101561010f57600080fd5b81019080803560ff1690602001909291905050506108d3565b005b34801561013657600080fd5b5061013f61098d565b6040518082815260200191505060405180910390f35b34801561016157600080fd5b5061016a610993565b604051808273ffffffffffffffffffffffffffffffffffffffff1673ffffffffffffffffffffffffffffffffffffffff16815260200191505060405180910390f35b3480156101b857600080fd5b506101e5600480360360208110156101cf57600080fd5b81019080803590602001909291905050506109b9565b6040518082815260200191505060405180910390f35b34801561020757600080fd5b50610210610f19565b6040518082815260200191505060405180910390f35b34801561023257600080fd5b506102756004803603602081101561024957600080fd5b81019080803573ffffffffffffffffffffffffffffffffffffffff169060200190929190505050610f1f565b6040518082815260200191505060405180910390f35b34801561029757600080fd5b506102a0610f37565b604051808273ffffffffffffffffffffffffffffffffffffffff1673ffffffffffffffffffffffffffffffffffffffff16815260200191505060405180910390f35b3480156102ee57600080fd5b506102f7610f5d565b604051808273ffffffffffffffffffffffffffffffffffffffff1673ffffffffffffffffffffffffffffffffffffffff16815260200191505060405180910390f35b610341610f83565b005b34801561034f57600080fd5b5061035861139a565b604051808273ffffffffffffffffffffffffffffffffffffffff1673ffffffffffffffffffffffffffffffffffffffff16815260200191505060405180910390f35b600560009054906101000a900473ffffffffffffffffffffffffffffffffffffffff1673ffffffffffffffffffffffffffffffffffffffff163373ffffffffffffffffffffffffffffffffffffffff1614151515610486576040517f08c379a00000000000000000000000000000000000000000000000000000000081526004018080602001828103825260388152602001807f506c6561736520646f6e27742077617374652070656f706c652773206861726481526020017f206561726e74205654484f204d722e4f776e6572203e3a28000000000000000081525060400191505060405180910390fd5b600081111515610524576040517f08c379a00000000000000000000000000000000000000000000000000000000081526004018080602001828103825260228152602001807f596f75206d757374207769746864726177206d6f7265207468616e203020564581526020017f542e00000000000000000000000000000000000000000000000000000000000081525060400191505060405180910390fd5b60008054905060008111151561053657fe5b6000600160003373ffffffffffffffffffffffffffffffffffffffff1673ffffffffffffffffffffffffffffffffffffffff168152602001908152602001600020549050600081111515610618576040517f08c379a00000000000000000000000000000000000000000000000000000000081526004018080602001828103825260218152602001807f596f75206d757374206861766520736f6d6520564554206465706f736974656481526020017f2e0000000000000000000000000000000000000000000000000000000000000081525060400191505060405180910390fd5b60008261063c3073ffffffffffffffffffffffffffffffffffffffff1631846113c0565b81151561064557fe5b0490506001840381101515156106c3576040517f08c379a000000000000000000000000000000000000000000000000000000000815260040180806020018281038252601f8152602001807f596f7520646f206e6f74207468652072657175697265642062616c616e63650081525060200191505060405180910390fd5b600181850311151561072b576000600160003373ffffffffffffffffffffffffffffffffffffffff1673ffffffffffffffffffffffffffffffffffffffff168152602001908152602001600020819055506107206000548361148d565b6000819055506107b1565b838111151561073657fe5b6000848203905060008261074a85846113c0565b81151561075357fe5b04905080600160003373ffffffffffffffffffffffffffffffffffffffff1673ffffffffffffffffffffffffffffffffffffffff168152602001908152602001600020819055506107a860005482860361148d565b60008190555050505b3373ffffffffffffffffffffffffffffffffffffffff166108fc859081150290604051600060405180830381858888f193505050501580156107f7573d6000803e3d6000fd5b503373ffffffffffffffffffffffffffffffffffffffff167f2fd619017c0fac5af90081b756574a05f8193ed6b73d03c6fcfef0413cf89e0a600186600160003373ffffffffffffffffffffffffffffffffffffffff1673ffffffffffffffffffffffffffffffffffffffff168152602001908152602001600020546000543073ffffffffffffffffffffffffffffffffffffffff16316040518086600281111561089e57fe5b60ff1681526020018581526020018481526020018381526020018281526020019550505050505060405180910390a250505050565b600460009054906101000a900473ffffffffffffffffffffffffffffffffffffffff1673ffffffffffffffffffffffffffffffffffffffff166379512513826040518263ffffffff167c01000000000000000000000000000000000000000000000000000000000281526004018082600781111561094d57fe5b60ff168152602001915050600060405180830381600087803b15801561097257600080fd5b505af1158015610986573d6000803e3d6000fd5b5050505050565b60005481565b600260009054906101000a900473ffffffffffffffffffffffffffffffffffffffff1681565b6000600560009054906101000a900473ffffffffffffffffffffffffffffffffffffffff1673ffffffffffffffffffffffffffffffffffffffff163373ffffffffffffffffffffffffffffffffffffffff16141515610aa6576040517f08c379a00000000000000000000000000000000000000000000000000000000081526004018080602001828103825260398152602001807f4f6e6c7920746865206f776e6572206f662074686520636f6e7472616374206381526020017f616e20696e697469617465206120636f6e76657273696f6e2e0000000000000081525060400191505060405180910390fd5b6000600260009054906101000a900473ffffffffffffffffffffffffffffffffffffffff1673ffffffffffffffffffffffffffffffffffffffff166370a08231306040518263ffffffff167c0100000000000000000000000000000000000000000000000000000000028152600401808273ffffffffffffffffffffffffffffffffffffffff1673ffffffffffffffffffffffffffffffffffffffff16815260200191505060206040518083038186803b158015610b6357600080fd5b505afa158015610b77573d6000803e3d6000fd5b505050506040513d6020811015610b8d57600080fd5b81019080805190602001909291905050509050600069043c33c19375648000008262093a8002811515610bbc57fe5b049050428160065403101515610c60576040517f08c379a00000000000000000000000000000000000000000000000000000000081526004018080602001828103825260328152602001807f43616e206f6e6c7920636f6e76657274206163636f7264696e6720746f206c6981526020017f6e656172206c6f636b6f75742074696d652e000000000000000000000000000081525060400191505060405180910390fd5b600260009054906101000a900473ffffffffffffffffffffffffffffffffffffffff1673ffffffffffffffffffffffffffffffffffffffff1663095ea7b3600360009054906101000a900473ffffffffffffffffffffffffffffffffffffffff16846040518363ffffffff167c0100000000000000000000000000000000000000000000000000000000028152600401808373ffffffffffffffffffffffffffffffffffffffff1673ffffffffffffffffffffffffffffffffffffffff16815260200182815260200192505050602060405180830381600087803b158015610d4757600080fd5b505af1158015610d5b573d6000803e3d6000fd5b505050506040513d6020811015610d7157600080fd5b8101908080519060200190929190505050506000603c420190506000600360009054906101000a900473ffffffffffffffffffffffffffffffffffffffff1673ffffffffffffffffffffffffffffffffffffffff166395e3c50b8588856040518463ffffffff167c0100000000000000000000000000000000000000000000000000000000028152600401808481526020018381526020018281526020019350505050602060405180830381600087803b158015610e2e57600080fd5b505af1158015610e42573d6000803e3d6000fd5b505050506040513d6020811015610e5857600080fd5b8101908080519060200190929190505050905062093a8042016006819055503373ffffffffffffffffffffffffffffffffffffffff167f2fd619017c0fac5af90081b756574a05f8193ed6b73d03c6fcfef0413cf89e0a600283600080543073ffffffffffffffffffffffffffffffffffffffff163160405180866002811115610ede57fe5b60ff1681526020018581526020018481526020018381526020018281526020019550505050505060405180910390a280945050505050919050565b60065481565b60016020528060005260406000206000915090505481565b600560009054906101000a900473ffffffffffffffffffffffffffffffffffffffff1681565b600360009054906101000a900473ffffffffffffffffffffffffffffffffffffffff1681565b600034111515610f8f57fe5b600560009054906101000a900473ffffffffffffffffffffffffffffffffffffffff1673ffffffffffffffffffffffffffffffffffffffff163373ffffffffffffffffffffffffffffffffffffffff161415151561107b576040517f08c379a00000000000000000000000000000000000000000000000000000000081526004018080602001828103825260388152602001807f506c6561736520646f6e27742077617374652070656f706c652773206861726481526020017f206561726e74205654484f204d722e4f776e6572203e3a28000000000000000081525060400191505060405180910390fd5b68056bc75e2d63100000341115151561116e576040517f08c379a00000000000000000000000000000000000000000000000000000000081526004018080602001828103825260708152602001807f447572696e672074686520416c7068612070686173652c206465706f7369747381526020017f20617265206c696d6974656420746f203130305645542e20546869732077696c81526020017f6c20626520696e63726561736564206f6e6365206175646974696e672068617381526020017f206265656e20636f6d706c657465642e0000000000000000000000000000000081525060800191505060405180910390fd5b6000805490506000811115611259576000343073ffffffffffffffffffffffffffffffffffffffff16310390506000816111a834856113c0565b8115156111b157fe5b0490506111c060005482611518565b60008190555061120f600160003373ffffffffffffffffffffffffffffffffffffffff1673ffffffffffffffffffffffffffffffffffffffff1681526020019081526020016000205482611518565b600160003373ffffffffffffffffffffffffffffffffffffffff1673ffffffffffffffffffffffffffffffffffffffff1681526020019081526020016000208190555050506112c2565b60003073ffffffffffffffffffffffffffffffffffffffff163190508060008190555080600160003373ffffffffffffffffffffffffffffffffffffffff1673ffffffffffffffffffffffffffffffffffffffff16815260200190815260200160002081905550505b3373ffffffffffffffffffffffffffffffffffffffff167f2fd619017c0fac5af90081b756574a05f8193ed6b73d03c6fcfef0413cf89e0a600034600160003373ffffffffffffffffffffffffffffffffffffffff1673ffffffffffffffffffffffffffffffffffffffff168152602001908152602001600020546000543073ffffffffffffffffffffffffffffffffffffffff16316040518086600281111561136857fe5b60ff1681526020018581526020018481526020018381526020018281526020019550505050505060405180910390a250565b600460009054906101000a900473ffffffffffffffffffffffffffffffffffffffff1681565b6000808314156113d35760009050611487565b600082840290508284828115156113e657fe5b04141515611482576040517f08c379a00000000000000000000000000000000000000000000000000000000081526004018080602001828103825260218152602001807f536166654d6174683a206d756c7469706c69636174696f6e206f766572666c6f81526020017f770000000000000000000000000000000000000000000000000000000000000081525060400191505060405180910390fd5b809150505b92915050565b6000828211151515611507576040517f08c379a000000000000000000000000000000000000000000000000000000000815260040180806020018281038252601e8152602001807f536166654d6174683a207375627472616374696f6e206f766572666c6f77000081525060200191505060405180910390fd5b600082840390508091505092915050565b6000808284019050838110151515611598576040517f08c379a000000000000000000000000000000000000000000000000000000000815260040180806020018281038252601b8152602001807f536166654d6174683a206164646974696f6e206f766572666c6f77000000000081525060200191505060405180910390fd5b809150509291505056fea165627a7a72305820f53efa724b9925c4c1884a31296612241013c5ee71de2ae13e119ed06c4986dc0029",
  "source": "import { SafeMath } from \"./SafeMath.sol\";\n\npragma solidity >=0.4.21 <0.6.0;\n\ncontract ERC20Token {\n  function balanceOf(address _owner) public view returns(uint256 balance);\n  function approve(address _spender, uint256 _value) public returns (bool success);\n}\n\ncontract Convertion {\n  function tokenToEthSwapInput(uint256 tokens_sold, uint256 min_eth, uint deadline) public returns (uint256 vet_bought);\n}\n\ncontract MPPContract {\n  function addUser(address _self, address _user) public;\n  function setCreditPlan(address _self, uint256 credit, uint256 recoveryRate) public;\n}\n\ncontract NodeContract {\n  enum strengthLevel {\n    None,\n\n    // Normal Token\n    Strength,\n    Thunder,\n    Mjolnir,\n\n    // X Token\n    VeThorX,\n    StrengthX,\n    ThunderX,\n    MjolnirX\n  }\n\n  function applyUpgrade(strengthLevel _toLvl) public;\n}\n\ncontract VPool {\n  uint256 public totalMintedSupply;             // The current total minted supply\n  mapping(address => uint256) public balanceOf; // MINT balance of each address\n  ERC20Token public vthor;                      // vTHOR contract\n  Convertion public conversion;                 // Conversion contract\n  NodeContract public node;                     // Node contract\n  address public owner;                         // Account authorised to run conversion\n  uint256 public lockOutTime;                   // Time locked out until another conversion can occur\n\n  enum TransactionType {\n    Deposit,\n    Withdraw,\n    Conversion\n  }\n\n  event BalanceUpdate(\n    TransactionType transactionType,\n    address indexed sender,\n    uint256 depositedAmount,\n    uint256 userBalance,\n    uint256 totalMintedSupply,\n    uint256 contractBalance\n  );\n\n  constructor(address vthorAddress, address conversionAddress, address nodeAddress, address mppAddress) public {\n    totalMintedSupply = 0;\n    vthor = ERC20Token(vthorAddress);\n    conversion = Convertion(conversionAddress);\n    node = NodeContract(nodeAddress);\n    lockOutTime = now;\n    owner = msg.sender;\n\n    MPPContract mpp = MPPContract(mppAddress);\n\n    mpp.addUser(address(this), owner);\n    mpp.setCreditPlan(address(this), 500 ether, 500 ether);\n  }\n\n  function deposit() public payable {\n    assert(msg.value > 0);\n    require(msg.sender != owner, \"Please don't waste people's hard earnt VTHO Mr.Owner >:(\");\n    require(msg.value <= 100 ether, \"During the Alpha phase, deposits are limited to 100VET. This will be increased once auditing has been completed.\");\n\n    uint256 totalLiquidity = totalMintedSupply;\n\n    if(totalLiquidity > 0) {\n      uint256 currentBalance = address(this).balance - msg.value;\n      uint256 mintAmount = SafeMath.mul(msg.value, totalLiquidity)/currentBalance;\n      \n      totalMintedSupply = SafeMath.add(totalMintedSupply, mintAmount);\n      balanceOf[msg.sender] = SafeMath.add(balanceOf[msg.sender], mintAmount);\n    } else {\n      uint256 initialMinted = address(this).balance;\n      totalMintedSupply = initialMinted;\n      balanceOf[msg.sender] = initialMinted;\n    }\n\n    emit BalanceUpdate(\n      TransactionType.Deposit,\n      msg.sender,\n      msg.value,\n      balanceOf[msg.sender],\n      totalMintedSupply,\n      address(this).balance\n    );\n  }\n\n  function withdraw(uint256 amount) public {\n    require(msg.sender != owner, \"Please don't waste people's hard earnt VTHO Mr.Owner >:(\");\n    require(amount > 0, \"You must withdraw more than 0 VET.\");\n\n    uint256 totalLiquidity = totalMintedSupply;\n    assert(totalLiquidity > 0);\n\n    uint256 senderCurrentBalance = balanceOf[msg.sender];\n\n    require(senderCurrentBalance > 0, \"You must have some VET deposited.\");\n\n    uint256 senderVETBalance = SafeMath.mul(address(this).balance, senderCurrentBalance)/totalLiquidity;\n\n    require(senderVETBalance >= (amount - 1), \"You do not the required balance\");\n\n    // rounding errors: user is withdrawing entire balance\n    if (amount - senderVETBalance <= 1) {\n      balanceOf[msg.sender] = 0;\n\n      totalMintedSupply = SafeMath.sub(totalMintedSupply, senderCurrentBalance);\n    } else {\n\n      assert(senderVETBalance > amount);\n\n      uint256 senderNewVETBalance = senderVETBalance - amount;\n\n      uint256 senderNewBalance = SafeMath.mul(senderCurrentBalance, senderNewVETBalance)/senderVETBalance;\n\n      balanceOf[msg.sender] = senderNewBalance;\n      totalMintedSupply = SafeMath.sub(totalMintedSupply, senderCurrentBalance - senderNewBalance);\n    }\n\n    msg.sender.transfer(amount);\n\n    emit BalanceUpdate(\n      TransactionType.Withdraw,\n      msg.sender,\n      amount,\n      balanceOf[msg.sender],\n      totalMintedSupply,\n      address(this).balance\n    );\n  }\n\n  function convertEnergy(uint256 amountVET) public returns (uint256) {\n    require(msg.sender == owner, \"Only the owner of the contract can initiate a conversion.\");\n\n    uint256 vthorBalance = vthor.balanceOf(address(this));\n\n    uint256 linearLockOutTime = 1 weeks * vthorBalance / 20000 ether;\n    \n    require(lockOutTime - linearLockOutTime < now, \"Can only convert according to linear lockout time.\");\n\n    vthor.approve(address(conversion), vthorBalance);\n\n    uint256 deadline = now + 1 minutes;\n\n    uint256 amountReceived = conversion.tokenToEthSwapInput(vthorBalance, amountVET, deadline);\n\n    lockOutTime = now + 1 weeks;\n\n    emit BalanceUpdate(\n      TransactionType.Conversion,\n      msg.sender,\n      amountReceived,\n      0,\n      totalMintedSupply,\n      address(this).balance\n    );\n\n    return amountReceived;\n  }\n\n  function upgradeNodeStatus(NodeContract.strengthLevel toLvl) public {\n    node.applyUpgrade(toLvl);\n  }\n\n  function() external payable { } // accept transfers\n}\n",
  "sourcePath": "/Users/jordan.holland/Documents/training/solidity/vpool/contracts/VPool.sol",
  "compiler": {
    "name": "solc",
    "version": "0.5.0+commit.1d4f565a.Emscripten.clang"
  },
  "schemaVersion": "3.0.5",
  "updatedAt": "2019-04-28T02:14:18.352Z",
  "devdoc": {
    "methods": {}
  },
  "userdoc": {
    "methods": {}
  }
}