{
  "contractName": "VPool",
  "abi": [
    {
      "constant": true,
      "inputs": [],
      "name": "totalMintedSupply",
      "outputs": [
        {
          "name": "",
          "type": "uint256"
        }
      ],
      "payable": false,
      "stateMutability": "view",
      "type": "function",
      "signature": "0x601e2603"
    },
    {
      "constant": true,
      "inputs": [],
      "name": "vthor",
      "outputs": [
        {
          "name": "",
          "type": "address"
        }
      ],
      "payable": false,
      "stateMutability": "view",
      "type": "function",
      "signature": "0x6192e184"
    },
    {
      "constant": true,
      "inputs": [
        {
          "name": "",
          "type": "address"
        }
      ],
      "name": "balanceOf",
      "outputs": [
        {
          "name": "",
          "type": "uint256"
        }
      ],
      "payable": false,
      "stateMutability": "view",
      "type": "function",
      "signature": "0x70a08231"
    },
    {
      "constant": true,
      "inputs": [],
      "name": "conversion",
      "outputs": [
        {
          "name": "",
          "type": "address"
        }
      ],
      "payable": false,
      "stateMutability": "view",
      "type": "function",
      "signature": "0x9311ca69"
    },
    {
      "constant": true,
      "inputs": [],
      "name": "node",
      "outputs": [
        {
          "name": "",
          "type": "address"
        }
      ],
      "payable": false,
      "stateMutability": "view",
      "type": "function",
      "signature": "0xd70754ec"
    },
    {
      "inputs": [
        {
          "name": "vthorAddress",
          "type": "address"
        },
        {
          "name": "conversionAddress",
          "type": "address"
        },
        {
          "name": "nodeAddress",
          "type": "address"
        }
      ],
      "payable": false,
      "stateMutability": "nonpayable",
      "type": "constructor",
      "signature": "constructor"
    },
    {
      "payable": true,
      "stateMutability": "payable",
      "type": "fallback"
    },
    {
      "anonymous": false,
      "inputs": [
        {
          "indexed": false,
          "name": "deposit",
          "type": "bool"
        },
        {
          "indexed": true,
          "name": "sender",
          "type": "address"
        },
        {
          "indexed": false,
          "name": "depositedAmount",
          "type": "uint256"
        },
        {
          "indexed": false,
          "name": "userBalance",
          "type": "uint256"
        },
        {
          "indexed": false,
          "name": "totalMintedSupply",
          "type": "uint256"
        },
        {
          "indexed": false,
          "name": "contractBalance",
          "type": "uint256"
        }
      ],
      "name": "BalanceUpdate",
      "type": "event",
      "signature": "0x8dbfb35bd8ec8595bf31a2ccf846077152cbdc2849c6ff1f9e9212a7fd30dc80"
    },
    {
      "anonymous": false,
      "inputs": [
        {
          "indexed": false,
          "name": "thorConverted",
          "type": "uint256"
        },
        {
          "indexed": false,
          "name": "vetReceived",
          "type": "uint256"
        },
        {
          "indexed": false,
          "name": "contractBalance",
          "type": "uint256"
        }
      ],
      "name": "Conversion",
      "type": "event",
      "signature": "0x4c928a709a88aa426c1e48ddc544994fb36e31f958fab108f36b7416f3d6b9f4"
    },
    {
      "constant": false,
      "inputs": [],
      "name": "deposit",
      "outputs": [],
      "payable": true,
      "stateMutability": "payable",
      "type": "function",
      "signature": "0xd0e30db0"
    },
    {
      "constant": false,
      "inputs": [
        {
          "name": "amount",
          "type": "uint256"
        }
      ],
      "name": "withdraw",
      "outputs": [],
      "payable": false,
      "stateMutability": "nonpayable",
      "type": "function",
      "signature": "0x2e1a7d4d"
    },
    {
      "constant": false,
      "inputs": [],
      "name": "convertEnergy",
      "outputs": [
        {
          "name": "",
          "type": "uint256"
        }
      ],
      "payable": false,
      "stateMutability": "nonpayable",
      "type": "function",
      "signature": "0x5d8cc60d"
    },
    {
      "constant": false,
      "inputs": [
        {
          "name": "toLvl",
          "type": "uint8"
        }
      ],
      "name": "upgradeNodeStatus",
      "outputs": [],
      "payable": false,
      "stateMutability": "nonpayable",
      "type": "function",
      "signature": "0x4d8eeff7"
    }
  ],
  "bytecode": "0x608060405234801561001057600080fd5b506040516060806110d08339810180604052606081101561003057600080fd5b810190808051906020019092919080519060200190929190805190602001909291905050506000808190555082600260006101000a81548173ffffffffffffffffffffffffffffffffffffffff021916908373ffffffffffffffffffffffffffffffffffffffff16021790555081600360006101000a81548173ffffffffffffffffffffffffffffffffffffffff021916908373ffffffffffffffffffffffffffffffffffffffff16021790555080600460006101000a81548173ffffffffffffffffffffffffffffffffffffffff021916908373ffffffffffffffffffffffffffffffffffffffff160217905550505050610f9f806101316000396000f3fe608060405260043610610099576000357c0100000000000000000000000000000000000000000000000000000000900463ffffffff1680632e1a7d4d1461009b5780634d8eeff7146100d65780635d8cc60d14610114578063601e26031461013f5780636192e1841461016a57806370a08231146101c15780639311ca6914610226578063d0e30db01461027d578063d70754ec14610287575b005b3480156100a757600080fd5b506100d4600480360360208110156100be57600080fd5b81019080803590602001909291905050506102de565b005b3480156100e257600080fd5b50610112600480360360208110156100f957600080fd5b81019080803560ff169060200190929190505050610705565b005b34801561012057600080fd5b506101296107bf565b6040518082815260200191505060405180910390f35b34801561014b57600080fd5b50610154610c0f565b6040518082815260200191505060405180910390f35b34801561017657600080fd5b5061017f610c15565b604051808273ffffffffffffffffffffffffffffffffffffffff1673ffffffffffffffffffffffffffffffffffffffff16815260200191505060405180910390f35b3480156101cd57600080fd5b50610210600480360360208110156101e457600080fd5b81019080803573ffffffffffffffffffffffffffffffffffffffff169060200190929190505050610c3b565b6040518082815260200191505060405180910390f35b34801561023257600080fd5b5061023b610c53565b604051808273ffffffffffffffffffffffffffffffffffffffff1673ffffffffffffffffffffffffffffffffffffffff16815260200191505060405180910390f35b610285610c79565b005b34801561029357600080fd5b5061029c610f4d565b604051808273ffffffffffffffffffffffffffffffffffffffff1673ffffffffffffffffffffffffffffffffffffffff16815260200191505060405180910390f35b60008111151561037c576040517f08c379a00000000000000000000000000000000000000000000000000000000081526004018080602001828103825260228152602001807f596f75206d757374207769746864726177206d6f7265207468616e203020564581526020017f542e00000000000000000000000000000000000000000000000000000000000081525060400191505060405180910390fd5b60008054905060008111151561038e57fe5b6000600160003373ffffffffffffffffffffffffffffffffffffffff1673ffffffffffffffffffffffffffffffffffffffff168152602001908152602001600020549050600081111515610470576040517f08c379a00000000000000000000000000000000000000000000000000000000081526004018080602001828103825260218152602001807f596f75206d757374206861766520736f6d6520564554206465706f736974656481526020017f2e0000000000000000000000000000000000000000000000000000000000000081525060400191505060405180910390fd5b600082823073ffffffffffffffffffffffffffffffffffffffff16310281151561049657fe5b049050600184038110151515610514576040517f08c379a000000000000000000000000000000000000000000000000000000000815260040180806020018281038252601f8152602001807f596f7520646f206e6f74207468652072657175697265642062616c616e63650081525060200191505060405180910390fd5b6001818503111515610575576000600160003373ffffffffffffffffffffffffffffffffffffffff1673ffffffffffffffffffffffffffffffffffffffff1681526020019081526020016000208190555081600054036000819055506105ed565b838111151561058057fe5b6000848203905060008282850281151561059657fe5b04905080600160003373ffffffffffffffffffffffffffffffffffffffff1673ffffffffffffffffffffffffffffffffffffffff168152602001908152602001600020819055508084036000540360008190555050505b3373ffffffffffffffffffffffffffffffffffffffff166108fc859081150290604051600060405180830381858888f19350505050158015610633573d6000803e3d6000fd5b503373ffffffffffffffffffffffffffffffffffffffff167f8dbfb35bd8ec8595bf31a2ccf846077152cbdc2849c6ff1f9e9212a7fd30dc80600086600160003373ffffffffffffffffffffffffffffffffffffffff1673ffffffffffffffffffffffffffffffffffffffff168152602001908152602001600020546000543073ffffffffffffffffffffffffffffffffffffffff163160405180861515151581526020018581526020018481526020018381526020018281526020019550505050505060405180910390a250505050565b600460009054906101000a900473ffffffffffffffffffffffffffffffffffffffff1673ffffffffffffffffffffffffffffffffffffffff166379512513826040518263ffffffff167c01000000000000000000000000000000000000000000000000000000000281526004018082600781111561077f57fe5b60ff168152602001915050600060405180830381600087803b1580156107a457600080fd5b505af11580156107b8573d6000803e3d6000fd5b5050505050565b600080600260009054906101000a900473ffffffffffffffffffffffffffffffffffffffff1673ffffffffffffffffffffffffffffffffffffffff166370a08231306040518263ffffffff167c0100000000000000000000000000000000000000000000000000000000028152600401808273ffffffffffffffffffffffffffffffffffffffff1673ffffffffffffffffffffffffffffffffffffffff16815260200191505060206040518083038186803b15801561087d57600080fd5b505afa158015610891573d6000803e3d6000fd5b505050506040513d60208110156108a757600080fd5b81019080805190602001909291905050509050600260009054906101000a900473ffffffffffffffffffffffffffffffffffffffff1673ffffffffffffffffffffffffffffffffffffffff1663095ea7b3600360009054906101000a900473ffffffffffffffffffffffffffffffffffffffff16836040518363ffffffff167c0100000000000000000000000000000000000000000000000000000000028152600401808373ffffffffffffffffffffffffffffffffffffffff1673ffffffffffffffffffffffffffffffffffffffff16815260200182815260200192505050602060405180830381600087803b1580156109a157600080fd5b505af11580156109b5573d6000803e3d6000fd5b505050506040513d60208110156109cb57600080fd5b8101908080519060200190929190505050506000600360009054906101000a900473ffffffffffffffffffffffffffffffffffffffff1673ffffffffffffffffffffffffffffffffffffffff166395b68fe7836040518263ffffffff167c01000000000000000000000000000000000000000000000000000000000281526004018082815260200191505060206040518083038186803b158015610a6e57600080fd5b505afa158015610a82573d6000803e3d6000fd5b505050506040513d6020811015610a9857600080fd5b810190808051906020019092919050505090506000603c4201905060006103cf90506000600360009054906101000a900473ffffffffffffffffffffffffffffffffffffffff1673ffffffffffffffffffffffffffffffffffffffff166395e3c50b866103e8858802811515610b0a57fe5b04866040518463ffffffff167c0100000000000000000000000000000000000000000000000000000000028152600401808481526020018381526020018281526020019350505050602060405180830381600087803b158015610b6c57600080fd5b505af1158015610b80573d6000803e3d6000fd5b505050506040513d6020811015610b9657600080fd5b810190808051906020019092919050505090507f4c928a709a88aa426c1e48ddc544994fb36e31f958fab108f36b7416f3d6b9f485823073ffffffffffffffffffffffffffffffffffffffff163160405180848152602001838152602001828152602001935050505060405180910390a1505050505090565b60005481565b600260009054906101000a900473ffffffffffffffffffffffffffffffffffffffff1681565b60016020528060005260406000206000915090505481565b600360009054906101000a900473ffffffffffffffffffffffffffffffffffffffff1681565b600034111515610c8557fe5b68056bc75e2d631000003411151515610d78576040517f08c379a00000000000000000000000000000000000000000000000000000000081526004018080602001828103825260708152602001807f447572696e672074686520416c7068612070686173652c206465706f7369747381526020017f20617265206c696d6974656420746f203130305645542e20546869732077696c81526020017f6c20626520696e63726561736564206f6e6365206175646974696e672068617381526020017f206265656e20636f6d706c657465642e0000000000000000000000000000000081525060800191505060405180910390fd5b6000805490506000811115610e16576000343073ffffffffffffffffffffffffffffffffffffffff1631039050600081833402811515610db457fe5b049050806000540160008190555080600160003373ffffffffffffffffffffffffffffffffffffffff1673ffffffffffffffffffffffffffffffffffffffff168152602001908152602001600020600082825401925050819055505050610e7f565b60003073ffffffffffffffffffffffffffffffffffffffff163190508060008190555080600160003373ffffffffffffffffffffffffffffffffffffffff1673ffffffffffffffffffffffffffffffffffffffff16815260200190815260200160002081905550505b3373ffffffffffffffffffffffffffffffffffffffff167f8dbfb35bd8ec8595bf31a2ccf846077152cbdc2849c6ff1f9e9212a7fd30dc80600134600160003373ffffffffffffffffffffffffffffffffffffffff1673ffffffffffffffffffffffffffffffffffffffff168152602001908152602001600020546000543073ffffffffffffffffffffffffffffffffffffffff163160405180861515151581526020018581526020018481526020018381526020018281526020019550505050505060405180910390a250565b600460009054906101000a900473ffffffffffffffffffffffffffffffffffffffff168156fea165627a7a72305820a0f3f5125505ab025db741e9a8f064e00a58653d1cae637dcf9debe0926d5b150029",
  "source": "pragma solidity >=0.4.21 <0.6.0;\n\ncontract ERC20Token {\n  function balanceOf(address _owner) public view returns(uint256 balance);\n  function approve(address _spender, uint256 _value) public returns (bool success);\n}\n\ncontract Convertion {\n  function getTokenToEthInputPrice(uint256 tokens_sold) public view returns(uint256 amount_vet);\n  function tokenToEthSwapInput(uint256 tokens_sold, uint256 min_eth, uint deadline) public returns (uint256 vet_bought);\n}\n\ncontract NodeContract {\n  enum strengthLevel {\n    None,\n\n    // Normal Token\n    Strength,\n    Thunder,\n    Mjolnir,\n\n    // X Token\n    VeThorX,\n    StrengthX,\n    ThunderX,\n    MjolnirX\n  }\n\n  function applyUpgrade(strengthLevel _toLvl) public;\n}\n\ncontract VPool {\n  uint256 public totalMintedSupply;             // The current total minted supply\n  mapping(address => uint256) public balanceOf; // MINT balance of each address\n  ERC20Token public vthor;                      // vTHOR contract\n  Convertion public conversion;                 // Conversion contract\n  NodeContract public node;                     // Node contract\n\n  event BalanceUpdate(\n    bool deposit,\n    address indexed sender,\n    uint256 depositedAmount,\n    uint256 userBalance,\n    uint256 totalMintedSupply,\n    uint256 contractBalance\n  );\n\n  event Conversion(\n    uint256 thorConverted,\n    uint256 vetReceived,\n    uint256 contractBalance\n  );\n\n  constructor(address vthorAddress, address conversionAddress, address nodeAddress) public {\n    totalMintedSupply = 0;\n    vthor = ERC20Token(vthorAddress);\n    conversion = Convertion(conversionAddress);\n    node = NodeContract(nodeAddress);\n  }\n\n  function deposit() public payable {\n    assert(msg.value > 0);\n    require(msg.value <= 100 ether, \"During the Alpha phase, deposits are limited to 100VET. This will be increased once auditing has been completed.\");\n\n    uint256 totalLiquidity = totalMintedSupply;\n\n    if(totalLiquidity > 0) {\n      uint256 currentBalance = address(this).balance - msg.value;\n      uint256 mintAmount = msg.value * totalLiquidity/currentBalance;\n      \n      totalMintedSupply = totalMintedSupply + mintAmount;\n      balanceOf[msg.sender] += mintAmount;\n    } else {\n      uint256 initialMinted = address(this).balance;\n      totalMintedSupply = initialMinted;\n      balanceOf[msg.sender] = initialMinted;\n    }\n\n    emit BalanceUpdate(\n      true,\n      msg.sender,\n      msg.value,\n      balanceOf[msg.sender],\n      totalMintedSupply,\n      address(this).balance\n    );\n  }\n\n  function withdraw(uint256 amount) public {\n    require(amount > 0, \"You must withdraw more than 0 VET.\");\n\n    uint256 totalLiquidity = totalMintedSupply;\n    assert(totalLiquidity > 0);\n\n    uint256 senderCurrentBalance = balanceOf[msg.sender];\n\n    require(senderCurrentBalance > 0, \"You must have some VET deposited.\");\n\n    uint256 senderVETBalance = (address(this).balance * senderCurrentBalance/totalLiquidity);\n\n    require(senderVETBalance >= (amount - 1), \"You do not the required balance\");\n\n    // rounding errors: user is withdrawing entire balance\n    if (amount - senderVETBalance <= 1) {\n      balanceOf[msg.sender] = 0;\n\n      totalMintedSupply = totalMintedSupply - senderCurrentBalance;\n    } else {\n\n      assert(senderVETBalance > amount);\n\n      uint256 senderNewVETBalance = senderVETBalance - amount;\n\n      uint256 senderNewBalance = (senderCurrentBalance * senderNewVETBalance/senderVETBalance);\n\n      balanceOf[msg.sender] = senderNewBalance;\n      totalMintedSupply = totalMintedSupply - (senderCurrentBalance - senderNewBalance);\n    }\n\n    msg.sender.transfer(amount);\n\n    emit BalanceUpdate(\n      false,\n      msg.sender,\n      amount,\n      balanceOf[msg.sender],\n      totalMintedSupply,\n      address(this).balance\n    );\n  }\n\n  function convertEnergy() public returns (uint256) {\n    uint256 vthorBalance = vthor.balanceOf(address(this));\n\n    vthor.approve(address(conversion), vthorBalance);\n\n    uint256 amountVET = conversion.getTokenToEthInputPrice(vthorBalance);\n\n    uint256 deadline = now + 1 minutes;\n    uint slippageAmount = 975;\n\n    uint256 amountReceived = conversion.tokenToEthSwapInput(vthorBalance, (amountVET * slippageAmount)/1000, deadline);\n\n    emit Conversion(\n      vthorBalance,\n      amountReceived,\n      address(this).balance\n    );\n\n    amountReceived;\n  }\n\n  function upgradeNodeStatus(NodeContract.strengthLevel toLvl) public {\n    node.applyUpgrade(toLvl);\n  }\n\n  function() external payable { } // accept transfers\n}\n",
  "sourcePath": "/Users/jordan.holland/Documents/training/solidity/vpool/contracts/VPool.sol",
  "compiler": {
    "name": "solc",
    "version": "0.5.0+commit.1d4f565a.Emscripten.clang"
  },
  "schemaVersion": "3.0.5",
  "updatedAt": "2019-04-18T05:45:00.139Z",
  "devdoc": {
    "methods": {}
  },
  "userdoc": {
    "methods": {}
  }
}